:1000000010C020C020C01EC01DC01CC01BC01AC014
:1000100024C018C0E1C1D4C1D5C1D6C1D7C1D8C18F
:10002000D9C111241FBECFE9CDBF10E0A0E6B0E0DA
:10003000EAEEF3E002C005900D92AC36B107D9F7B5
:100040009FD1D1C1DDCF1F920F920FB60F92112415
:100050000F900FBE0F901F9018951F920F920FB622
:100060000F9211242F933F934F935F936F937F933E
:100070008F939F93AF93BF93EF93FF9387D1FF919C
:10008000EF91BF91AF919F918F917F916F915F9110
:100090004F913F912F910F900FBE0F901F90189589
:1000A00085B7877E806185BF85B7806285BF88956B
:1000B00085B78F7D85BF0895CF93C7E086E071D166
:1000C000EFDFC150D9F7CF910895BC9AC49AB89A7E
:1000D000B99AC098BB9885B78C7F85BF8BB7806273
:1000E0008BBFAB9A0895C09AC1980895C098C19AE1
:1000F0000895CF93CCE3F7DF8BEA91E00197F1F716
:100100000000F4DF8BEA91E00197F1F70000C150A5
:1001100091F7CF910895AF92BF92CF92DF92EF9275
:10012000FF921F93CF93DF93CDB7DD27C450CDBF90
:1001300081E0898382E08A8383E08B8384E08C83FF
:10014000CE0101966C015E0195E0A90EB11C67C05D
:10015000CADFF60110811230C9F028F4112341F0F2
:10016000113069F027C01330C1F01430E1F022C023
:100170008BEA91E00197F1F70000B8DF29C0EEE7C4
:10018000F1E03197F1F70000B1DF28C081E591E09F
:100190000197F1F70000AADF27C0E6E4F1E031970C
:1001A000F1F7A4DF27C084E291E00197F1F70000A6
:1001B0009DDF25C09BDF1230B9F028F4112341F0F8
:1001C000113011F50BC01330A9F01430E9F417C049
:1001D000EBEAF1E03197F1F7000016C08EE791E00D
:1001E0000197F1F7000010C0E1E5F1E03197F1F778
:1001F00000000AC086E491E00197F1F705C0E4E24F
:10020000F1E03197F1F70000F1E0EF1AF10809F0A1
:100210009FCF8FEFC81AD80ACA14DB0431F00F2E13
:10022000FCE3EF2EF12CF02D93CFCC5FCDBFDF910F
:10023000CF911F91FF90EF90DF90CF90BF90AF9044
:100240000895AF92BF92CF92DF92EF92FF921F93E9
:10025000CF93DF93CDB7DD27CC50CDBF8CE0E0E668
:10026000F0E0DE01119601900D928A95E1F7CE0142
:1002700001966C015E019DE0A90EB11C67C033DFE1
:10028000F60110811230C9F028F4112341F0113029
:1002900069F027C01330C1F01430E1F022C08BEABE
:1002A00091E00197F1F7000021DF29C0EEE7F1E0CE
:1002B0003197F1F700001ADF28C081E591E001973E
:1002C000F1F7000013DF27C0E6E4F1E03197F1F722
:1002D0000DDF27C084E291E00197F1F7000006DF0F
:1002E00025C004DF1230B9F028F4112341F0113099
:1002F00011F50BC01330A9F01430E9F417C0EBEA84
:10030000F1E03197F1F7000016C08EE791E0019718
:10031000F1F7000010C0E1E5F1E03197F1F70000DE
:100320000AC086E491E00197F1F705C0E4E2F1E04C
:100330003197F1F70000F1E0EF1AF10809F09FCFD3
:100340008FEFC81AD80ACA14DB0431F00F2EFCE371
:10035000EF2EF12CF02D93CFC45FCDBFDF91CF9165
:100360001F91FF90EF90DF90CF90BF90AF900895D6
:10037000D2DEA2DEBEDEA0DEBCDE9EDE62DF08953F
:1003800005D0A3DE78948CDEF3DFFCCFF894A8953B
:1003900084B7877F84BF81B5886181BD11BC7894A3
:1003A0000895E82FF894A89584B7877F84BF8E2F8F
:1003B00090E087309105B0F4FC01E65FFF4F0994AF
:1003C00091E40BC092E409C093E407C094E405C033
:1003D00096E403C091E601C090E481B5886181BDD7
:0A03E00091BD78940895F894FFCFC2
:0C03EA00030201000404030201000404EB
:00000001FF
